:100000000C9490000C94AF000C94AF000C94AF00D3
:100010000C94AF000C94AF000C94AF000C94AF00A4
:100020000C94AF000C94AF000C94AF000C94AF0094
:100030000C94AF000C94AF000C94AF000C94AF0084
:100040000C94AF000C94AF000C94AF000C94AF0074
:100050000C94AF000C94AF000C94AF000C94AF0064
:100060000C94AF000C94AF000C94AF000C94AF0054
:100070000C94AF000C94AF000C94AF000C94AF0044
:100080000C94AF000C94AF000C94AF000C94AF0034
:100090000C94AF000C94AF000C94AF000C94AF0024
:1000A0000C94AF000C94AF000C94AF000C94AF0014
:1000B0000C94AF000C94AF000C94AF000C94AF0004
:1000C0000C94AF000C94AF000C94AF000C94AF00F4
:1000D0000C94AF000C94AF000C94AF000C94AF00E4
:1000E0000C94AF000C94AF000C94AF000C94AF00D4
:1000F0000C94AF000C94AF000C94AF000C94AF00C4
:100100000C94AF000C94AF000C94AF000C94AF00B3
:100110000C94AF000C94AF000C94AF000C94AF00A3
:1001200011241FBECFEFD1E4DEBFCDBF12E0A0E0AF
:10013000B2E0EEEBF8E000E00BBF02C007900D92DA
:10014000A032B107D9F712E0A0E2B2E001C01D92DF
:10015000A632B107E1F70E94B1000C945D040C9443
:1001600000000F931F93CF93DF930E94E00082E182
:1001700092E0909323028093220290932102809335
:10018000200200E012E0C0E1D7E2809120029091CD
:1001900021020E94630100D000D0EDB7FEB71283A8
:1001A0000183992787FD9095948383830E94A501FD
:1001B000CE010197F1F70F900F900F900F90E5CFC0
:1001C00025982D9A6A98729A089520988298559841
:1001D0009A986E9824986F9826985B9A539A5A9892
:1001E000529A8DE08A95F1F783B181707A99826095
:1001F0004D9B02C0846001C08B7F929B02C08860CF
:1002000001C0877F669B02C0806101C08F7E1C9BFE
:1002100002C0806201C08F7D679B02C0806401C004
:100220008F7B1E9B02C0806801C08F775A9A089509
:100230006299FECF0E94E50090E00895982F80FF1C
:1002400002C0289A01C0289891FF02C08A9A01C072
:100250008A9892FF02C05D9A01C05D9893FF02C028
:10026000A29A01C0A29894FF02C0769A01C0769823
:1002700095FF02C02C9A01C02C9896FF02C0779A75
:1002800001C0779887FF02C02E9A01C02E98209A4D
:10029000829A559A9A9A6E9A249A6F9A269A5A9A9C
:1002A000529A5B98539A5B9A08951F93182F1D9941
:1002B000FECF812F0E941E01212F332727FD30956D
:1002C000C9011F910895CF93DF93EC014B8140FF4B
:1002D0001AC046FF0AC04F7B4B838E819F810196D7
:1002E0009F838E838A81282F2BC042FF13C0E88111
:1002F000F9818081282F332727FD3095211531057D
:1003000029F440624B832FEF3FEF1BC03196F983F6
:10031000E88311C0EA85FB85CE0109959C0197FF12
:100320000AC09B812F5F3F4F11F080E201C080E146
:10033000892B8B83E8CF8E819F8101969F838E834B
:1003400030E0C901DF91CF910895DF93CF93CDB70E
:10035000DEB7FE01359661917191809122029091F4
:100360002302AF010E94B701CF91DF9108952F9230
:100370003F924F925F926F927F928F929F92AF9235
:10038000BF92CF92DF92EF92FF920F931F93DF9372
:10039000CF93CDB7DEB72B970FB6F894DEBF0FBE65
:1003A000CDBF3C012B015A01FC01178216828381CB
:1003B00081FD03C06FEF7FEFC6C19AE0892E1E0159
:1003C0000894211C311CF3012381F20123FD859146
:1003D00023FF81912F01882309F4B2C1853239F4BA
:1003E00023FD859123FF81912F01853229F490E02F
:1003F000B3010E94D303E7CF982FFF24EE24992462
:10040000FFE1FF15D0F09B3269F09C3228F4903266
:1004100059F0933291F40EC09D3249F0903369F453
:1004200041E024C052E0F52A84E0F82A28C098E090
:10043000F92A25C0E0E1FE2A22C0F7FC29C0892F55
:1004400080538A3070F4F6FE05C0989C902C1124DD
:10045000980E15C0E89CE02C1124E80EF0E2FF2A6B
:100460000EC09E3229F4F6FC6BC140E4F42A07C0AA
:100470009C3619F450E8F52A02C0983649F4F20186
:1004800023FD959123FF91912F01992309F0B8CF76
:10049000892F8554833018F08052833038F444E03B
:1004A00050E0A40EB51E5FE359830FC0933631F0C0
:1004B000933779F0933509F056C020C0F50180815B
:1004C000898342E050E0A40EB51E610101E010E016
:1004D00012C0F501C080D180F6FC03C06FEF7FEF42
:1004E00002C0692D70E042E050E0A40EB51EC601C6
:1004F0000E94C8038C015FE7F52214C0F501C0809B
:10050000D180F6FC03C06FEF7FEF02C0692D70E071
:1005100042E050E0A40EB51EC6010E94BD038C014E
:1005200050E8F52AF3FE07C01AC080E290E0B3015C
:100530000E94D303EA948E2D90E008171907A8F3C0
:100540000EC0F601F7FC8591F7FE81916F0190E0F6
:10055000B3010E94D303E110EA9401501040011549
:10056000110579F7EAC0943611F0993669F5F7FE6E
:1005700008C0F501208131814281538184E090E0FF
:100580000AC0F501808191819C01442737FD409587
:10059000542F82E090E0A80EB91E9FE6F92257FF83
:1005A00009C050954095309521953F4F4F4F5F4F73
:1005B000E0E8FE2ACA01B901A1012AE030E00E9468
:1005C000FF03D82ED21840C0953729F41F2D1F7E67
:1005D0002AE030E01DC01F2D197F9F3661F0903753
:1005E00020F4983509F0ACC00FC0903739F0983737
:1005F00009F0A6C004C028E030E00AC0106114FD74
:10060000146020E130E004C014FD166020E132E007
:1006100017FF08C0F501608171818281938144E0F8
:1006200050E008C0F50180819181BC0180E090E03C
:1006300042E050E0A40EB51EA1010E94FF03D82E97
:10064000D2188FE7F82EF122F6FE0BC05EEFF522EE
:10065000D91438F4F4FE07C0F2FC05C08FEEF8227E
:1006600002C01D2D01C0192DF4FE0DC0FE01ED0DBF
:10067000F11D8081803319F499EEF92208C01F5FC3
:10068000F2FE05C003C08F2D867809F01F5F0F2D85
:10069000F3FC14C0F0FE0FC01E1510F09D2C0BC013
:1006A0009D2C9E0C911A1E2D06C080E290E0B30195
:1006B0000E94D3031F5F1E15C0F304C01E1510F463
:1006C000E11A01C0EE2404FF0FC080E390E0B30103
:1006D0000E94D30302FF1DC001FD03C088E790E024
:1006E0000EC088E590E00BC0802F867891F001FF66
:1006F00002C08BE201C080E2F7FC8DE290E0B30122
:100700000E94D30306C080E390E0B3010E94D303AC
:100710009A94D914C0F3DA94F101ED0DF11D8081A2
:1007200090E0B3010E94D303DD20A9F706C080E268
:1007300090E0B3010E94D303EA94EE20C1F743CEC8
:10074000F30166817781CB012B960FB6F894DEBF5B
:100750000FBECDBFCF91DF911F910F91FF90EF9012
:10076000DF90CF90BF90AF909F908F907F906F90D1
:100770005F904F903F902F900895FC01059061503D
:1007800070400110D8F7809590958E0F9F1F0895A7
:10079000FC016150704001900110D8F78095909550
:1007A0008E0F9F1F08950F931F93CF93DF938C019C
:1007B000EB018B8181FF1BC082FF0DC02E813F8129
:1007C0008C819D812817390764F4E881F9810193B0
:1007D000F983E88306C0E885F985802F0995892B80
:1007E00031F48E819F8101969F838E8302C00FEF2B
:1007F0001FEFC801DF91CF911F910F910895FA016A
:10080000AA27283051F1203181F1E8946F936E7F4F
:100810006E5F7F4F8F4F9F4FAF4FB1E03ED0B4E040
:100820003CD0670F781F891F9A1FA11D680F791F81
:100830008A1F911DA11D6A0F711D811D911DA11D92
:1008400020D009F468943F912AE0269F11243019A2
:10085000305D3193DEF6CF010895462F4770405D3D
:100860004193B3E00FD0C9F7F6CF462F4F70405DEC
:100870004A3318F0495D31FD4052419302D0A9F747
:10088000EACFB4E0A6959795879577956795BA9541
:10089000C9F700976105710508959B01AC010A2E07
:1008A00006945795479537952795BA95C9F7620FDE
:0E08B000731F841F951FA01D0895F894FFCF9D
:1008BE00796F7520656E74657265643A2025630DD7
:1008CE000A0000000003000000005501180100009E
:00000001FF
