:1000000010C100002DC100002BC1000029C100005B
:1000100027C1000025C1000023C1000021C100004C
:100020001FC100001DC100001BC1000019C100005C
:1000300017C100000C94590A13C1000011C100003F
:100040000FC100000DC100000BC1000009C100007C
:1000500007C100000C94CD0903C1000001C10000DC
:10006000FFC00000FDC00000FBC00000F9C00000A0
:10007000F7C00000F5C00000F3C00000F1C00000B0
:10008000EFC00000EDC00000EBC00000E9C00000C0
:100090000C94840A0C94680AE3C00000E1C00000DC
:1000A000DFC00000DDC000000C94480AD9C0000089
:1000B000D7C00000D5C00000D3C00000D1C00000F0
:1000C000CFC00000CDC00000CBC00000C9C0000000
:1000D000C7C00000C5C00000C3C00000C1C0000010
:1000E000BFC00000BDC00000BBC00000B9C0000020
:1000F000B7C00000B5C00000B3C00000B1C0000030
:10010000AFC00000ADC00000ABC00000A9C000003F
:10011000A7C00000A5C00000A3C00000A1C000004F
:100120006E616E00696E660000407A10F35A00A09E
:10013000724E18090010A5D4E80000E876481700B0
:1001400000E40B54020000CA9A3B000000E1F505F0
:10015000000080969800000040420F000000A0863A
:1001600001000000102700000000E803000000006C
:100170006400000000000A00000000000100000010
:1001800000002C76D888DC674F0823DFC1DFAE592A
:10019000E1B1B796E5E3E453C63AE651997696E8BD
:1001A000E6C28426EB898C9B62ED407C6FFCEFBC41
:1001B0009C9F40F2BAA56FA5F490055A2AF75C936C
:1001C0006B6CF9676DC11BFCE0E40D47FEF520E6A2
:1001D000B500D0ED902E0300943577050080841E85
:1001E000080000204E0A000000C80C333333330FE0
:1001F000986E12831141EF8D2114893BE65516CF7D
:10020000FEE6DB18D1844B381BF77C1D901DA4BB88
:10021000E424203284725E228100C9F124ECA1E53D
:100220003D2711241FBECFEFD1E4DEBFCDBF12E0CA
:10023000A0E0B2E0E6E0F9E300E00BBF02C0079007
:100240000D92AE32B107D9F72BE0AEE2B2E001C0B9
:100250001D92A436B207E1F70E9465090C94811C37
:10026000CFCE4F925F926F927F928F929F92AF927A
:10027000BF92CF92DF92EF92FF920F931F93CF9393
:10028000DF93CDB7DEB728970FB6F894DEBF0FBE69
:10029000CDBFFC0180819181A281B381181619061E
:1002A0001A061B066CF52C013D01770C4408542CF2
:1002B0003201FB01A080B180C280D380E480F58050
:1002C00006811781282F392F4A2F5B2F642D742D1B
:1002D000842D942D0E942B19E22EF32EB42F022F81
:1002E000132F242F352FAE2DFF2DEB2FB32F330FD0
:1002F000000B102F9801602F702F802F902F5BC064
:10030000BB230CF050C0FB01F081F983FB01F181AC
:10031000FA83FB01F281FB83FB01F381FC83FB0188
:10032000F481FD83FB01F581FE83FB01F681FF83F0
:10033000FB01F781F887B095A095909581959F4F27
:10034000AF4FBF4F2C013D01770C4408542C3201B4
:10035000A980BA80CB80DC80ED80FE800F811F2FCA
:10036000282F392F4A2F5B2F642D742D842D942D27
:100370000E942B19822E932EA42EB52E09811A814C
:100380002B813C81081919092A093B09A02FF12F5B
:10039000E22FB32F330F000B102F9801602F702F17
:1003A000802F902F08C0A0E0F0E0E0E0B0E060E037
:1003B00070E080E090E02A2F3F2F4E2F5B2F289691
:1003C0000FB6F894DEBF0FBECDBFDF91CF911F9166
:1003D0000F91FF90EF90DF90CF90BF90AF909F90E4
:1003E0008F907F906F905F904F9008952F923F92E3
:1003F0004F925F926F927F928F929F92AF92BF9235
:10040000CF92DF92EF92FF920F931F93CF93DF93E0
:10041000CDB7DEB72E970FB6F894DEBF0FBECDBFB7
:10042000DC01FB018C918D8311969C9111979E8329
:1004300012968C9112978F8313969C91139798879D
:1004400014968C911497898715969C9115979A8785
:1004500016968C9116978B8717969C919C87808116
:10046000898391819A8382818B8393819C839480F9
:1004700085807680678029813A81482F592F692DA0
:10048000782D872D962DA1E00E94501A09F00CF4CA
:1004900048C04D805E80BF81A885F985EA852B84A0
:1004A0003C8481E090E09E878D87862D672C782C98
:1004B000892C932C382EAD80BE80CF80D884E984DF
:1004C000FA840B851C85242D352D4B2F5A2F6F2F29
:1004D0007E2F822D992D0E94DA18422E532EB42F92
:1004E000A52FF62FE72F282E992E8D859E85019614
:1004F0009E878D879E85990F990B2D853E85492F67
:10050000592F692F792F892FA980BA80CB80DC8061
:10051000E82CF72C062D132D0E94471A64F2392C73
:1005200008C04D805E80BF81A885F985EA852B844F
:100530003C84242D352D4B2F5A2F6F2F7E2F822D4B
:10054000932D2E960FB6F894DEBF0FBECDBFDF9170
:10055000CF911F910F91FF90EF90DF90CF90BF90C0
:10056000AF909F908F907F906F905F904F903F9053
:100570002F9008952F923F924F925F926F927F92A9
:100580008F929F92AF92BF92CF92DF92EF92FF92A3
:100590000F931F93CF93DF93CDB7DEB7EA970FB6D4
:1005A000F894DEBF0FBECDBFDB016A01022F132F0F
:1005B000FC01208131814281538164817581F68003
:1005C000978129833A834B835C836D837E83FF828B
:1005D0009887FC91FBA711968C9111978CA7129686
:1005E000EC911297EDA71396FC911397FEA7149622
:1005F0008C9114978FA71596EC911597E8AB1696EA
:10060000FC911697F9AB17968C918AABF601F081A5
:10061000FBABF601F181FCABF601F281FDABF6011B
:10062000F381FEABF601F481FFABF601F581F8AF83
:10063000F601F681F9AFF601F781FAAF83E0898719
:100640001A861B861C861D861E861F86188A198E92
:100650001A8E1B8E1C8E1D8E1E8E1F8E18A28F2D25
:10066000A0E00E94501A0CF491C0802E912E212CF3
:10067000312C412C512C612C712C19A21AA2BE01D3
:10068000675F7F4FCE014996B1DE2BA33CA34DA3FC
:100690005EA36FA378A789A79AA7A98CBA8CCB8CE5
:1006A000DC8CED8CFE8C0F8D18A12BA53CA54DA5E7
:1006B0005EA56FA578A989A99AA90E94DA18ABA0AE
:1006C000BCA0CDA0DEA0EFA0F8A409A51AA50E94A9
:1006D000321AABA8BCA8CDA8DEA8EFA8F8AC09AD2B
:1006E0001AAD0E94321A298B3A8B4B8B5C8B6D8B27
:1006F0007E8B8F8B988FBE016F5F7F4FCE014196AF
:10070000B0DDF40120833183428353836483758396
:1007100086839783F8E08F0E911C298D3A8D4B8D3F
:100720005C8D6D8D7E8D8F8D98A1A1E00E943B1A0E
:10073000298F3A8F4B8F5C8F6D8F7E8F8F8F98A311
:10074000272D362D452D542D632D722D89A19AA16B
:100750000E943B1AA22EB32EC42ED52EE62EF72EC3
:10076000082F192F722E632E542E452E362E272E2B
:1007700089A39AA329813A814B815C816D817E8115
:100780008F8198850E94471A0CF079CFEA960FB6B0
:10079000F894DEBF0FBECDBFDF91CF911F910F91B7
:1007A000FF90EF90DF90CF90BF90AF909F908F9091
:1007B0007F906F905F904F903F902F9008952F9271
:1007C0003F924F925F926F927F928F929F92AF92E1
:1007D000BF92CF92DF92EF92FF920F931F93CF932E
:1007E000DF93CDB7DEB7A2970FB6F894DEBF0FBE8A
:1007F000CDBFFC014B012081318142815381648155
:1008000075818681978129833A834B835C836D83CD
:100810007E838F839887E2E0E9871A861B861C8691
:100820001D861E861F86188AAFEF0E943B1AF22E85
:10083000032F142FB52FF62FE72F382E492EA0E0C7
:100840000E94501A5CF4A1E00E943B1AF22E032F82
:10085000142FB52FF62FE72F382E492E2F2D302F9E
:10086000412F5B2F6F2F7E2F832D942D01E00E944F
:10087000141A29A33AA3742E652E562E472E382E0D
:10088000292EE1E0E98F1A8E1B8E1C8E1D8E1E8E86
:100890001F8E18A2A0E00E94501A09F00CF44EC05E
:1008A000BE01675F7F4FCE014996A0DD298B3A8B51
:1008B0004B8B5C8B6D8B7E8B8F8B988F098D1A8DFC
:1008C000000F111F000F111F000F111F080D191D20
:1008D000BE016F5F7F4FCE014196C3DCF8012083DC
:1008E0003183428353836483758386839783298D01
:1008F0003A8D4B8D5C8D6D8D7E8D8F8D98A1A1E095
:100900000E943B1AA22EB32EC42ED52EE62EF72E11
:10091000082F192F298F3A8F4B8F5C8F6D8F7E8F09
:100920008F8F98A329A13AA1472D562D652D742D9F
:10093000832D922D0E94471A0CF0B2CFF401108241
:100940001182128213821482158216821782A29655
:100950000FB6F894DEBF0FBECDBFDF91CF911F91D0
:100960000F91FF90EF90DF90CF90BF90AF909F904E
:100970008F907F906F905F904F903F902F90089551
:100980002F923F924F925F926F927F928F929F929F
:10099000AF92BF92CF92DF92EF92FF920F931F938D
:1009A000CF93DF93CDB7DEB7C85CDE430FB6F894C4
:1009B000DEBF0FBECDBFDB01C756D14C39832883C4
:1009C000C959DE43C556D14C19830883CB59DE4340
:1009D000CA53D14CF982E882C65CDE43FC01208117
:1009E000298321812A8322812B8323812C832481C3
:1009F0002D8325812E8326812F83878188878C9163
:100A0000898711968C9111978A8712968C911297EB
:100A10008B8713968C9113978C8714968C911497CF
:100A20008D8715968C9115978E8716968C911697B3
:100A30008F8717968C91888BDA018C91898B119610
:100A40008C9111978A8B12968C9112978B8B13969F
:100A50008C9113978C8B14968C9114978D8B159683
:100A60008C9115978E8B16968C9116978F8B179667
:100A70008C91888FBE01675E7F4FCE0101969FDE0D
:100A8000B981C254D14CB883CE5BDE43EA81C154F4
:100A9000D14CE883CF5BDE43FB81C054D14CF8835B
:100AA000C05CDE438C81CF53D14C8883C15CDE4374
:100AB0009D81CE53D14C9883C25CDE43AE81CD5331
:100AC000D14CA883C35CDE43BF81CC53D14CB883E7
:100AD000C45CDE43E885CB53D14CE883C55CDE4380
:100AE000C254D14C2881CE5BDE43C154D14C3881F5
:100AF000CF5BDE434F2F582F692F7A2F8B2F9E2FDE
:100B0000AFEF0E943B1A322E432E542E652E762EC6
:100B1000872E982E292EE22F132F042FF52EE62E46
:100B2000D72EB82FF92FA0E00E94501A5CF4A1E054
:100B30000E943B1AE22F132F042FF52EE62ED72EFC
:100B4000B82FF92F2E2F312F402F5F2D6E2D7D2D99
:100B50008B2F9F2F01E00E94141AA1E00E943B1AE4
:100B6000C356D14C2883CD59DE43C256D14C38836D
:100B7000CE59DE43C156D14C4883CF59DE43C056CF
:100B8000D14C5883C05ADE43CF55D14C6883C15AEB
:100B9000DE43CE55D14C7883C25ADE43CD55D14C7D
:100BA0008883C35ADE43CC55D14C9883C45ADE4364
:100BB0009E01275A304EAE014F5E5F4FBE01675F08
:100BC0007F4FCE010196D6DC232D342D452D562D99
:100BD000672D782D892D922DA0E00E94501A0CF4DB
:100BE000E9C2FE01E75AF04EC454D14CF983E883C0
:100BF000CC5BDE43CC54D14C1882C45BDE43CB5477
:100C0000D14C1882C55BDE43CA54D14C1882C65BF6
:100C1000DE43C954D14C1882C75BDE43C854D14C63
:100C20001882C85BDE43C754D14C1882C95BDE43CF
:100C3000C654D14C1882CA5BDE43C554D14C1882CD
:100C4000CB5BDE43C455D14C1882CC5ADE43C3552E
:100C5000D14C1882CD5ADE43C255D14C1882CE5A9F
:100C6000DE43C155D14C1882CF5ADE43C055D14C1A
:100C70001882C05BDE43CF54D14C1882C15BDE4387
:100C8000CE54D14C1882C25BDE43CD54D14C188275
:100C9000C35BDE43F7C1208131814281538164818E
:100CA0007581868197813896CB55D14CA880C55ADD
:100CB000DE43CA55D14CB880C65ADE43C955D14C23
:100CC000C880C75ADE43C855D14CD880C85ADE43C5
:100CD000C755D14CE880C95ADE43C655D14CF8807F
:100CE000CA5ADE43C555D14C0881CB5ADE43122D7A
:100CF0000E94471A09F0E3C0C455D14C2881CC5A50
:100D0000DE43C355D14C3881CD5ADE43C255D14C58
:100D10004881CE5ADE43C155D14C5881CF5ADE436B
:100D2000C055D14C6881C05BDE43CF54D14C788133
:100D3000C15BDE43CE54D14C8881C25BDE43CD54CF
:100D4000D14C9881C35BDE43A0E00E94501A09F0A9
:100D500063C0CC54D14C8881C45BDE43C756D14CB0
:100D6000A881B981C959DE438C93CB54D14C988169
:100D7000C55BDE4311969C931197CA54D14C888170
:100D8000C65BDE4312968C931297C954D14C98815E
:100D9000C75BDE4313969C931397C854D14C88814C
:100DA000C85BDE4314968C931497C754D14C98813A
:100DB000C95BDE4315969C931597C654D14C888128
:100DC000CA5BDE4316968C931697C554D14C988116
:100DD000CB5BDE4317969C93C556D14CA881B98155
:100DE000CB59DE433C9211964C92119712965C922D
:100DF000129713966C92139714967C9214971596EB
:100E00008C92159716969C921697C853D14C888150
:100E1000C85CDE4317968C93C455D14C2881CC5ABC
:100E2000DE43C355D14C3881CD5ADE43C255D14C37
:100E30004881CE5ADE43C155D14C5881CF5ADE434A
:100E4000C055D14C6881C05BDE43CF54D14C788112
:100E5000C15BDE43CE54D14C8881C25BDE43CD54AE
:100E6000D14C9881C35BDE43A1E00E943B1AC4557C
:100E7000D14C2883CC5ADE43C355D14C3883CD5A4C
:100E8000DE43C255D14C4883CE5ADE43C155D14CC6
:100E90005883CF5ADE43C055D14C6883C05BDE43D4
:100EA000CF54D14C7883C15BDE43CE54D14C888380
:100EB000C25BDE43CD54D14C9883C35BDE43232D0C
:100EC000342D452D562D672D782D892DC853D14CA5
:100ED0009881C85CDE43A1E00E943B1AA22EB32E8B
:100EE000C42ED52EE62EF72E082F192F322E432E84
:100EF000542E652E762E872E982EC853D14C98836B
:100F0000C85CDE43C356D14C2881CD59DE43C2565E
:100F1000D14C3881CE59DE43C156D14C4881CF598E
:100F2000DE43C056D14C5881C05ADE43CF55D14C18
:100F30006881C15ADE43CE55D14C7881C25ADE4316
:100F4000CD55D14C8881C35ADE43CC55D14C9881C4
:100F5000C45ADE430E94471A0CF09DCECC54D14CAB
:100F60002881C45BDE43CB54D14C3881C55BDE4362
:100F7000CA54D14C4881C65BDE43C954D14C588118
:100F8000C75BDE43C854D14C6881C85BDE43C7549D
:100F9000D14C7881C95BDE43C654D14C8881CA5B91
:100FA000DE43C554D14C9881CB5BDE43A1E00E9467
:100FB0003B1AA22EB32EC42ED52EE62EF72E082FC6
:100FC000192FCC54D14C2883C45BDE43CB54D14C75
:100FD0003883C55BDE43CA54D14C4883C65BDE43CD
:100FE000C954D14C5883C75BDE43C854D14C688385
:100FF000C85BDE43C754D14C7883C95BDE43C6541B
:10100000D14C8883CA5BDE43C554D14C9883CB5BFB
:10101000DE43C454D14CE881F981CC5BDE43389681
:10102000C454D14CF983E883CC5BDE43C254D14C29
:101030002881CE5BDE43C154D14C3881CF5BDE4387
:10104000C054D14C4881C05CDE43CF53D14C588151
:10105000C15CDE43CE53D14C6881C25CDE43CD53CC
:10106000D14C7881C35CDE43CC53D14C8881C45CC5
:10107000DE43CB53D14C9881C55CDE430E94471AB6
:1010800009F4C0C0C356D14C2881CD59DE43C256A5
:10109000D14C3881CE59DE43C156D14C4881CF590D
:1010A000DE43C056D14C5881C05ADE43CF55D14C97
:1010B0006881C15ADE43CE55D14C7881C25ADE4395
:1010C000CD55D14C8881C35ADE43CC55D14C988143
:1010D000C45ADE43A0E00E94501A0CF43FCFC4541F
:1010E000D14CE881F981CC5BDE43F081CB55D14C0A
:1010F000F883C55ADE43C454D14CE881F981CC5BF6
:10110000DE43F181CA55D14CF883C65ADE43C4543C
:10111000D14CE881F981CC5BDE43F281C955D14CD9
:10112000F883C75ADE43C454D14CE881F981CC5BC3
:10113000DE43F381C855D14CF883C85ADE43C4540A
:10114000D14CE881F981CC5BDE43F481C755D14CA9
:10115000F883C95ADE43C454D14CE881F981CC5B91
:10116000DE43F581C655D14CF883CA5ADE43C454D8
:10117000D14CE881F981CC5BDE43F681C555D14C79
:10118000F883CB5ADE43C454D14CE881F981CC5B5F
:10119000DE432780FE017996312C412C512C612CA5
:1011A000712C812C912CB0E0C853D14CB883C85C11
:1011B000DE4371CDC455D14C1882CC5ADE43C355A1
:1011C000D14C1882CD5ADE43C255D14C1882CE5A2A
:1011D000DE43C155D14C1882CF5ADE43C055D14CA5
:1011E0001882C05BDE43CF54D14C1882C15BDE4312
:1011F000CE54D14C1882C25BDE43CD54D14C188200
:10120000C35BDE43C455D14C2881CC5ADE43C35561
:10121000D14C3881CD5ADE43C255D14C4881CE5A8B
:10122000DE43C155D14C5881CF5ADE43C055D14C15
:101230006881C05BDE43CF54D14C7881C15BDE4313
:10124000CE54D14C8881C25BDE43CD54D14C9881C1
:10125000C35BDE4301E00E94FB19A1E00E943B1A40
:10126000CA53D14CA881B981C65CDE432C93119638
:101270003C93119712964C93129713965C93139785
:1012800014966C93149715967C93159716968C93D9
:10129000169717969C93C853D14C0FB6F894DEBF9F
:1012A0000FBECDBFDF91CF911F910F91FF90EF90B7
:1012B000DF90CF90BF90AF909F908F907F906F9076
:1012C0005F904F903F902F900895CF93DF93CDB7CD
:1012D000DEB7E0970FB6F894DEBF0FBECDBF0E9419
:1012E0009F14EEE5FBE084E092E093838283918398
:1012F00080830E949A130F2EF1E1AF2EF02D689497
:10130000BB24B1F80F2EF2E1CF2EF2E0DF2EF02D4C
:101310000E94A113A9A61AA61BA61CA61DA61EA65E
:101320001FA618AAB9A21AA21BA21CA21DA21EA225
:101330001FA218A6B98E1A8E1B8E1C8E1D8E1E8E95
:101340001F8E18A2CE0101967C018E01075F1F4FF0
:101350009E012F5E3F4FAE01475E5F4FBE016F5D46
:101360007F4F88960DDB888D8F938F898F938E8921
:101370008F938D898F938C898F938B898F938A8993
:101380008F9389898F93DF92CF920E94E41B0FB6CF
:10139000F894DEBF0FBECDBFBBCF1F920F920FB62A
:1013A0000F9211240BB60F922F933F934F935F939D
:1013B0006F937F938F939F93AF93BF93EF93FF931D
:1013C000E0912E02F0912F02309709F00995FF91DC
:1013D000EF91BF91AF919F918F917F916F915F91AD
:1013E0004F913F912F910F900BBE0F900FBE0F901A
:1013F0001F90189514BE0FB6F894A89580916000C0
:10140000886180936000109260000FBEE1E6F0E01A
:1014100080E880831082789404C0089590E016C01C
:1014200008951092350B80E197E29093A900809384
:10143000A800E1EAF0E088E0808380818260808318
:10144000E2E7F0E080818260808308952091A4002B
:101450003091A500820F931FEAEAF0E09183808328
:10146000208131818091A8009091A9008217930773
:1014700050F42091A8003091A90080819181821BB5
:10148000930B9183808384E089BBCA9BFECF089530
:101490001F920F920FB60F9211248F938091350BEC
:1014A0008F5F8093350B8F910F900FBE0F901F9021
:1014B00018951F920F920FB60F9211248F9381E00F
:1014C000809330028F910F900FBE0F901F90189550
:1014D0001F920F920FB60F9211240BB60F928F939B
:1014E000EF93FF9381E080933202E9ECF0E080819A
:1014F0008F7D8083FF91EF918F910F900BBE0F90A6
:101500000FBE0F901F9018951F920F920FB60F925B
:1015100011240BB60F922F933F934F935F936F93CA
:101520007F938F939F93AF93BF93EF93FF9380919C
:10153000C8002091CE008C7159F5E3E3F2E04681BA
:101540005781848195814817590711F1408551854C
:1015500082819381BC016F5F7F4F73836283DA0165
:10156000A80FB91F2C93228133818481958128177C
:10157000390721F41092360210923502E3E3F2E0CB
:101580008681978101969783868381E080933102DB
:10159000FF91EF91BF91AF919F918F917F916F914B
:1015A0005F914F913F912F910F900BBE0F900FBE07
:1015B0000F901F901895E6E3FBE0148215821182CC
:1015C000108217A216A2ECE3FBE08CE59BE01192DF
:1015D0001192E817F907D9F70FD62CD3DBD032D008
:1015E0005EC10895E82FF0E0EE0FFF1FE45CF44FBA
:1015F00071836083089566D3FED629C00895E09173
:101600003D02F0913E023097D9F02281338182175A
:10161000930789F405C0228133812817390759F4CB
:10162000DC01AD57BF4F2C91278713962C91208B4F
:1016300022E0248305C00190F081E02D309759F716
:10164000EBC0089510923E0210923D0208950F9350
:101650001F93CF93DF93E0913D02F0913E023097CC
:1016600009F493C0EF018C81882321F0823009F4C2
:1016700066C085C09AD08C01009721F482E08C83EB
:101680008F8783C09B838A8381E08C83F801E9572D
:10169000FF4F8FEF9AE0918380833197898582FB9A
:1016A000882780F980839985D8011B968C911B9798
:1016B00090FB80F91B968C931B97998593FB992738
:1016C00090F990FB82F91B968C931B97E6E3FBE065
:1016D00084818F5F84831C968C931C978081918179
:1016E0001E969C938E931D978D819E8150969C9300
:1016F0008E931F978885982F9F7051968C91519744
:10170000807F892B51968C9351979F819295907FE2
:101710008F70892B51968C93F801EF57FF4F4C85B2
:1017200050E06A857B85808191810E94941BF8013D
:1017300091818C85890F8183C80181D526C0EC17E2
:10174000FD0741F48081918190933E0280933D0298
:101750000AC0FC01808191818C179D07D1F7888197
:10176000998191838083E6E3FBE086A197A10197AD
:1017700097A386A3ED85FE85CE01099506C0099045
:10178000D881C02D209709F06ECFDF91CF911F91A6
:101790000F910895EFE3F2E089E997E01082E757AF
:1017A000FF4FE817F907D1F7089580913F0288238A
:1017B00049F0E8ECF2E081E090E0AC0120812111F9
:1017C00022C002C040E050E069E8649F9001659F3C
:1017D000300D1124C901815C9D4FFC0111926A9565
:1017E000E9F740E1FC014183EF57FF4F2F5A3D4F8E
:1017F00031832083E6E3FBE026A137A12F5F3F4F33
:1018000037A326A308950196E757FF4F8A30910525
:10181000A1F680E090E00895FC011082E6E3FBE091
:1018200086A197A1019797A386A30895009741F0F9
:10183000FC01E757FF4F87E0E939F80718F012C0BD
:10184000EFE3F2E08081882321F00FC080818111D5
:101850000FC0E757FF4F87E0E939F807B8F380E09A
:1018600090E0089580E090E008958E2F9F2F0895D6
:101870008E2F9F2F0895FC01DC01AD57BF4F1C92A6
:10188000A6E3BBE014969C9114979F5F14969C93DB
:10189000149794878D919C91968785870895AAE9DE
:1018A000B7E080E090E04FEF5FEF11965C934E93CE
:1018B000FC01EE0FFF1FEE0FFF1FEE0FFF1FE81BD7
:1018C000F90BE756F84F20812E7F208314961C9247
:1018D0001497019617968436910539F708950F935A
:1018E0001F93CF93DF93EAE9F7E020E030E0062F83
:1018F00010E04081518148175907B1F4D901AA0F6E
:10190000BB1FAA0FBB1FAA0FBB1FA21BB30BA7565F
:10191000B84F4C9146954170C42F40E0D42FC0176A
:10192000D10711F4CD0108C02F5F3F4F3796243601
:101930003105F9F680E090E0DF91CF911F910F9192
:101940000895A0E0B0E0E9E9F7E0808180FD0DC0F6
:101950008581882381F0109739F015969C91159711
:10196000891718F4DF0101C0DF0137968AE0E535F9
:10197000F80759F7FD0180818D708063808380E8CE
:101980008583CF010895FC01808180FD05C08FEF24
:101990009FEF9283818315820895A1DF009721F044
:1019A000FC018381948108958FEF9FEF089597DF65
:1019B000009709F0E8CF08950F931F93CF93DF931B
:1019C000FC010185128511232CF485859685081765
:1019D0001907E1F5858196810196C1F1EF0160E07B
:1019E000858596857CDFFC01892BA1F08F81988508
:1019F0000196F9F42091360B3091370B8F85988939
:101A000028173907B1F41483038380818F708063B2
:101A100080830AC096DFFC018D859E859283818339
:101A200089859A8594838383CD57DF4F8881868308
:101A30000DC08381948108171907B1F39681DE01E7
:101A4000AD57BF4F8C919817F0F2EECFDF91CF9149
:101A50001F910F910895CF93DF93FC0187859089A3
:101A60008F3F2FEF9207D9F1EF01638563FB662764
:101A700060F935DFDC01892B91F18C9180FD2FC05D
:101A8000FE01ED57FF4F8081811119C08C918F703D
:101A900080638C9315968C9115978F5F15968C9318
:101AA0008F3FE9F4EEE9F7E02AE53AE08081869598
:101AB0008F5F80833796E217F307C1F710C09C91C0
:101AC000892F82958F70815F8F70282F2295207FBC
:101AD0009F70922B9C93811102C0CD0154DFDF9146
:101AE000CF910895CF93DF93FC01878590898F3F35
:101AF0002FEF920729F48FEF9FEF908787830EC017
:101B0000238522FF03C09087878308C0EF01638588
:101B100063FB662760F941DF98878F83DF91CF9160
:101B20000895AF92BF92CF92DF92EF92FF921F93F0
:101B3000CF93DF93EC011B8513FB112710F9CF84A2
:101B4000D888612FC60129DF019659F0FE01E957B7
:101B5000FF4F11821082319782E08083CE016FD3D4
:101B600022C0AD84BE8421DE7C010097D1F083DEEB
:101B7000F70181818A5F8183E957FF4F11821082CB
:101B8000F701B08AA786EF57FF4F0190F081E02D53
:101B900081E08083B282A182D482C3821583C7018F
:101BA0004ED3CE0139DEDF91CF911F91FF90EF90A0
:101BB000DF90CF90BF90AF900895FC012185263033
:101BC00049F40780F085E02D658183819481EFDE03
:101BD00081E0089580E00895DC0119962C91199711
:101BE000222371F01796ED91FC9118972081222302
:101BF00019F0213019F006C0B6C30895DECF08955C
:101C000080E0089580E00895BC01E7E6FAE029E964
:101C10003AE040E051E09081992319F0915090838F
:101C2000452F3596E217F307B1F7442311F0CB01A6
:101C300010C60895E7E6FAE089E99AE01082359641
:101C4000E817F907D9F7E5E5FAE084E690E0A0E0C7
:101C5000B0E086839783A087B187128684E09EE0F8
:101C6000948783876CEE7DE080E0BCCC0895CF93B1
:101C7000DF93DC01ED91FC91119721812838F9F473
:101C800020812F7D2134D9F412962C912031B8F087
:101C9000EC018BDD009799F020E2FC0120832A8182
:101CA00021832B81ED57FF4F20832C813196208398
:101CB0004A8150E06881798102960E94941BDF91ED
:101CC000CF9108952F923F924F925F926F927F92A1
:101CD0008F929F92AF92BF92CF92DF92EF92FF923C
:101CE0000F931F93CF93DF93CDB7DEB72C970FB62B
:101CF000F894DEBF0FBECDBF00E010E00F2EF4E27F
:101D0000BF2EF02D0F2EF6E3EF2EFBE0FF2EF02D71
:101D1000552453946894AA24A4F86894772473F8FB
:101D20006894662462F8312C212C0F2EFFE14F2E8F
:101D3000F02DCC24C394D12CDAC1D8018C918232FD
:101D400009F405C118F4803241F0D1C1833209F49D
:101D5000C9C1843209F4C9C1CAC1F801B0828385FE
:101D6000982F9A7009F0C3C1258136812F3F3F4FCC
:101D700091F4D8011F968D919C915097F701208185
:101D800031812817390719F0019609F0B0C1E2E254
:101D9000D801EC93ACC1D8011F962D913C9150977E
:101DA0002F3F3F4F11F480FDA2C1F7012081318107
:101DB000D8011D968D919C911E972817390709F41B
:101DC00096C1C801F9DDE3E6FAE080E090E0832CFB
:101DD000922C9C014481442309F474C0D8011D96BF
:101DE0006D917C911E97408151816417750709F0B0
:101DF0006AC01C968C911C97F901EE0FFF1FEE0F25
:101E0000FF1FE20FF31FED59F54F9281981B983099
:101E100008F03EC0F901EE0FFF1FEE0FFF1FE20FAB
:101E2000F31FED59F54F8381482F50E0092E02C072
:101E3000559547950A94E2F740FF17C0F7012081B6
:101E4000318117968D919C9118972817390709F0C1
:101E50004EC11B966C911B9763FB662760F91F961A
:101E60008D919C915097A3DD42C1F901EE0FFF1FA8
:101E7000EE0FFF1F2E0F3F1FF901ED59F54F960191
:101E800002C0220F331F9A95E2F7822B838336C15B
:101E9000F901EE0FFF1FEE0FFF1F2E0F3F1FF9017D
:101EA000ED59F54F82838381282F30E09195A90168
:101EB00002C0440F551F9A95E2F7CA0181608383DF
:101EC00044821CC14F01019635968A30910509F074
:101ED00080CF8114910409F40AC1D8011D968D9117
:101EE0009C911E97F401918380831C968C91828330
:101EF0005382448285E59AE0ACD400C1D7012D918C
:101F00003C91F801878590892817390781F043852E
:101F100042FD0BC0C801E2D1D7012D913C91F801DF
:101F2000878590892817390711F0019621F4E2E29C
:101F3000D801EC93DCC0D80117968D919C9118972D
:101F40008217930709F0D3C0E3E2EC93D0C010925C
:101F5000620AD80151968C91519782958F70E82F23
:101F6000F0E0EE0FFF1FE45CF44F0190F081E02DF4
:101F7000309709F460C01D962D913C911E973A83CD
:101F800029831F964D915C9150975C834B835196AA
:101F90009C9151979F709D838E83AF57BF4F8D91BA
:101FA0009C9199878887B8016E5F7F4F861B970B3E
:101FB000D80111969C911197981B9A87AD57BF4FE6
:101FC0008C918B8711968C918C87D8011B969C9154
:101FD000692F637092FD02C080E001C080E2862B11
:101FE00093FD02C090E001C090E4892B4F3F5F4F0A
:101FF00011F090E001C0962D892BD80119964D91D2
:102000005C911A972417350711F090E001C0972DC5
:10201000892B8F83D80115962D913C9116972F3FD0
:102020003F4F11F090E001C09A2D892B8F83CE0194
:102030000196099501C080E0F801938590FF80E04A
:10204000D80117962D913C9118972F3F3F4F69F477
:10205000F70140815181D8011F962D913C915097F5
:102060004217530711F493FF852DF801258136811E
:102070002F3F3F4FA1F1D7012D913C912F3F3F4F73
:1020800071F1882361F191DB4C01009741F1F3DBA1
:10209000F40181818D5F8183E957FF4F11821082A6
:1020A000D8011B968C911B9786958170F4019385BE
:1020B00080FB91F993871D968D919C911E97908B33
:1020C0008787EF57FF4F0190F081E02D10828091BC
:1020D000620A82831C968C918183C401B0D0D8019E
:1020E000BC9205C0C8011DDD02C0C80195DBC80156
:1020F0009DDB8C01892B09F020CE07C0F801878178
:102100009085019609F008CFF9CE2C960FB6F89479
:10211000DEBF0FBECDBFDF91CF911F910F91FF901A
:10212000EF90DF90CF90BF90AF909F908F907F9077
:102130006F905F904F903F902F900895EF92FF9295
:102140000F931F93CF937C0110E080E090E001E0BB
:10215000C3E113C0FC012081213179F4EC57FF4F1A
:10216000208131812150310931832083232B21F4B7
:10217000FC01C083102F01C0102F58DB009751F7CE
:10218000112311F0C70165D3CF911F910F91FF90DB
:10219000EF900895EF92FF920F931F93CF93DF93E9
:1021A0007C0110E080E090E001E0D7E1C0E116C0E2
:1021B000FC012081263191F4EC57FF4F20813181C1
:1021C0002150310931832083232B39F4FC01D08342
:1021D000ED57FF4FC083102F01C0102F27DB009752
:1021E00039F7112311F0C70134D3DF91CF911F913B
:1021F0000F91FF90EF9008951092B00A1092AF0ADD
:10220000E2EAFAE082E390E0A0E0B0E08683978320
:10221000A087B18712868AEC90E194878387E5E9ED
:10222000FAE08AE090E0A0E0B0E086839783A087A0
:10223000B18712868EE990E1948783870895CF93C2
:10224000DF93EC01FC01EA57FF4F808181FF03C05F
:1022500092E1988302C092E19883FE01ED57FF4F0F
:10226000108280FF05C02FEF3FEF3E832D8306C015
:102270002091380B3091390B3E832D83857019F4F2
:10228000CE0130DC04C08F85988998878F83E6E380
:10229000FBE0808191819A87898785818F5F858323
:1022A0008C838F819885019671F481E498E89B83F3
:1022B0008A830E94A31ACC57DF4F87709927019613
:1022C0009983888308C081E698E89B838A83CC57EA
:1022D000DF4F19821882DF91CF9108950F931F93DA
:1022E000CF93DF938C0161DAEC01892BB9F182E1A4
:1022F0008883F80181818983FE01ED57FF4F1082A9
:102300000E94A31AFE01EC57FF4F87709927019690
:1023100091838083339611821082F801418150E0CD
:10232000B8016E5F7F4FCE0102960E94941B81E43C
:1023300098E89B838A838FEF9FEF98878F83F801BC
:10234000858196819E838D83E6E3FBE08081918188
:102350009A87898785818F5F85838C83DF91CF9171
:102360001F910F910895CF93DF93FC0121852330B6
:10237000D9F410C0FC012081263189F434852981EB
:1023800032130DC027E120832A81EA57FF4F2083B3
:1023900081E00BC0FC01C781D08580E090E046DA87
:1023A000009741F780E001C080E0DF91CF91089570
:1023B000E091AF0AF091B00A813021F048F082300C
:1023C00019F004C080E205C081E203C081E001C0D1
:1023D00080E0DF01AD57BF4F8C9385E18083109281
:1023E000B00A1092AF0AE6E3FBE086A197A101973D
:1023F00097A386A308959F92AF92BF92CF92DF9248
:10240000EF92FF920F931F93CF93DF93C0E0D0E042
:102410000F2EF4E1AF2EF02D06E31BE00F2EF7E1B7
:10242000DF2EF02D0F2EF6E19F2EF02D0F2EF5E171
:10243000EF2EF12CF02D0F2EF3E1CF2EF02D0F2EDD
:10244000F1E1BF2EF02D60C088818331C1F018F416
:10245000823139F059C0853149F1873109F445C0DD
:1024600053C0FE01EC57FF4F80819181892B29F0E9
:10247000B88285E99AE0EDD147C0C88245C0809115
:10248000AF0A9091B00A892B09F03EC0D093B00AF0
:10249000C093AF0AA8826981CE01029665D0F80187
:1024A00086A197A1019697A386A32EC0FE01ED57A2
:1024B000FF4F8081811117C02D853E85F8018081F5
:1024C00091812817390769F48B8580FF0AC09882AB
:1024D000FE01EC57FF4FF182E08282EA9AE0B9D127
:1024E00013C0D88211C0D8820FC0CE01B4DAFE0169
:1024F000E957FF4F0190F081E02D309719F4CE019C
:102500008BD902C0CE010995CE0190D9EC01892B5F
:1025100009F09ACFDF91CF911F910F91FF90EF902B
:10252000DF90CF90BF90AF909F90089593E09093ED
:102530004201E1E4F1E090819F719830E1F78093EE
:102540004201E1E4F1E090819F718913FCCF08958D
:1025500088E0ECDF8FEF80934F018091B10A8823F0
:1025600011F086E1E3CF08951F93CF93DF93182FE7
:10257000D92FC62F89E1DADF8FEF80934F0182E0F8
:102580008C0F80938001CC2371F0A12FBD2FC150FF
:102590006C2F70E06E577E4FE1E8F1E08D918193F2
:1025A000E617F707D9F783E08093320B82E0809338
:1025B0004201DF91CF911F910895EF92FF920F9307
:1025C0001F93CF93DF9386E0B1DFC0E0D0E0E12C32
:1025D000F12C06E411E081E00E940E0AF8018081EE
:1025E000829586958770837090E00C2E02C0880FCC
:1025F000991F0A94E2F7E82AF92A2296C031D105F8
:1026000051F7A6DFC701DF91CF911F910F91FF9086
:10261000EF900895E9E3F1E080818160808310927A
:10262000B10A81E08093320B88E080DFECE4F1E0D6
:10263000808180688083C1DF80936D0108951F933E
:10264000CF93DF9300D000D01F92CDB7DEB780913B
:10265000320B823009F465C080914F0183FF3EC088
:10266000A0917B016A2F70E0AB014F5F5F4F80E06C
:1026700090E020E0FC01E058FE4F3081FC01EE5478
:10268000F54F30832F5F822F90E08417950794F3E6
:1026900082EB9AE09A838983A250AB83FB01EE54CC
:1026A000F54F80818C83809147018A558D83CE01BF
:1026B0000196DDDAE1E4F1E080818F718631E1F7A6
:1026C000EFE4F1E0808188608083ECE4F1E08081D8
:1026D0008F77808380818068808323C080914F01C1
:1026E00086FF1FC0809141018F718931A9F410913B
:1026F000420112951695177049F0133021F01530EC
:1027000021F013E003C011E001C012E021DF81E0FD
:102710008093320B812F4CDEEFE4F1E08081806406
:1027200080830F900F900F900F900F90DF91CF91BB
:102730001F9108950E94FA096DD06CDF0C94DB0A9A
:1027400008957DDF0E94FB0A8FC008950F931F93A9
:10275000CF93DF93EC018091330B9091340B009772
:1027600009F445C04E815F8168857985FC0102814D
:10277000138124813581401751076207730760F088
:10278000DC0117C002811381248135814017510774
:102790006207730768F403C0FC01A0E0B0E0041B0B
:1027A000150B260B370B02831383248335830AC052
:1027B000DF01401B510B620B730BED91FC911197E4
:1027C000309701F74A835B836C837D83109741F0D8
:1027D0008D919C91119799838883CD93DC9315C03B
:1027E00099838883D093340BC093330B0EC0198226
:1027F00018828E819F81A885B9858A839B83AC834B
:10280000BD83D093340BC093330BDF91CF911F91D5
:102810000F9108951092340B1092330B0895E091AC
:10282000330BF091340B309771F0E817F90721F46E
:102830000CC08E179F0759F00190F081E02D309762
:10284000C1F780E0089580E0089581E0089581E077
:102850000895CF93DF93EC01E2DF811102C0CE0136
:1028600075DFDF91CF910895CF92DF92EF92FF92C3
:10287000CF93DF938091350B882309F459C08FB72C
:10288000F894C090350B1092350B8FBFD12CE12CF2
:10289000F12CCC0CDD1CEE1CFF1CD701C601880FEF
:1028A000991FAA1FBB1F880F991FAA1FBB1FC80E05
:1028B000D91EEA1EFB1EC091330BD091340B20971A
:1028C000B9F18A819B81AC81BD81C816D906EA061F
:1028D000FB0610F1C81AD90AEA0AFB0A8881998115
:1028E0009093340B8093330B8A85813011F4CE01A1
:1028F0002DDFEB85FC85CE010995C091330BD0917E
:10290000340B2097A9F08A819B81AC81BD81C816C8
:10291000D906EA06FB06F0F68A819B81AC81BD816F
:102920008C199D09AE09BF098A839B83AC83BD8343
:10293000DF91CF91FF90EF90DF90CF900895259891
:102940002D9A6A98729A08952098829855989A9824
:102950006E9824986F9826985B9A539A5A98529A30
:102960008DE08A95F1F7000083B181707A9B02C0F7
:10297000826001C08D7F4D9B02C0846001C08B7F4F
:10298000929B02C0886001C0877F669B02C0806105
:1029900001C08F7E1C9B02C0806201C08F7D679B3F
:1029A00002C0806401C08F7B1E9B02C0806801C092
:1029B0008F775A9A08956299FECFC6DF90E0089506
:1029C00080FF02C0289A01C0289881FF02C08A9A1D
:1029D00001C08A9882FF02C05D9A01C05D9883FFA2
:1029E00002C0A29A01C0A29884FF02C0769A01C0D8
:1029F000769885FF02C02C9A01C02C9886FF02C0F1
:102A0000779A01C07798882314F42E9A01C02E98E3
:102A1000209A829A559A9A9A6E9A249A6F9A269A2E
:102A20005A9A529A5B98539A5B9A0895CF93C82FFB
:102A30001D99FECF8C2FC4DF8C2F90E0CF9108958D
:102A40002F923F924F925F926F927F928F929F92BE
:102A5000AF92BF92CF92DF92EF92FF920F931F93AC
:102A6000CF93DF93CDB7DEB760970FB6F894DEBF94
:102A70000FBECDBF7C011B016A01FC0117821682CB
:102A8000838181FF2AC39E012F5F3F4F3901F701E8
:102A90009381F10193FD859193FF81911F0188231B
:102AA00009F417C3853239F493FD859193FF819121
:102AB0001F01853231F4B70190E04AD65601650115
:102AC000E6CF10E0512C912CFFE1F915D8F08B32B4
:102AD00079F038F4803279F08332A1F4F92DF06185
:102AE0002EC08D3261F0803369F4292D21602DC014
:102AF000392D3260932E892D8460982E2AC0E92DBD
:102B0000E86015C097FC2DC020ED280F2A3088F40E
:102B100096FE06C03AE0139F200D1124122F19C013
:102B20008AE0589E200D1124522EE92DE0629E2E3F
:102B300010C08E3231F496FCCCC2F92DF0649F2E79
:102B400008C08C3621F4292D2068922E02C08836C8
:102B500041F4F10193FD859193FF81911F01811152
:102B6000B3CF9BEB980F933020F4992D9061805E4A
:102B700007C09BE9980F933008F059C1992D9F7EAB
:102B800096FF16E09F73992E853619F49064992E5E
:102B900008C0863621F4392F3068932E02C01111F7
:102BA000115097FE07C01C3350F444244394410E47
:102BB00027E00BC0183038F027E017E005C027E009
:102BC0009CE3492E02C0212F412C560184E0A80E1F
:102BD000B11CF6016081718182819381042DA30172
:102BE000C0D46C01F981FC87F0FF02C0F3FF06C07E
:102BF00091FC06C092FE06C000E205C00DE203C0D3
:102C00000BE201C000E08C858C7019F0011143C209
:102C100080C297FE10C04C0CFC85F4FF04C08A8172
:102C2000813309F44A94141474F528E0241578F5D6
:102C300088E0482E2CC096FC2AC0812F90E08C158D
:102C40009D059CF03CEFC3163FEFD30674F0892D31
:102C50008068982E0AC0E2E0F0E0EC0FFD1FE10F63
:102C6000F11D8081803319F411501111F4CF97FEBA
:102C70000EC044244394410E812F90E0C816D9061B
:102C80002CF41C1904C04424439401C010E097FEA6
:102C900006C01C141D0434F4C601019605C085E06D
:102CA00090E002C081E090E001110196112331F023
:102CB000212F30E02F5F3F4F820F931F252D30E0F3
:102CC0008217930714F4581A01C0512C892D89706A
:102CD00041F4552031F0B70180E290E039D55A94A3
:102CE000F8CF002321F0B701802F90E031D593FC7D
:102CF00008C0552031F0B70180E390E029D55A94FF
:102D0000F8CF97FE4AC04601D7FE02C0812C912C15
:102D1000C60188199909F301E80FF91FFE87ED87AD
:102D2000960124193109388B2F87012F10E0119556
:102D3000019511093FEF8316930621F4B7018EE246
:102D400090E006D5C814D9044CF08F859889881571
:102D5000990524F4ED85FE85818101C080E3F1E0D1
:102D60008F1A91082D853E852F5F3F4F3E872D8717
:102D70008016910624F0B70190E0EAD4DBCFC814A6
:102D8000D90441F49A81963320F4953319F43C85A3
:102D900034FF81E3B70190E048C08A81813319F0A4
:102DA0009C859F7E9C87B70190E0D2D4111105C00D
:102DB00094FC16C085E690E015C0B7018EE290E065
:102DC000C7D41E5F82E001E0080FF301E80FF11D98
:102DD0008081B70190E0BCD4802F0113F4CFE8CFFD
:102DE00085E490E0B701B4D4D7FC06C0C114D10487
:102DF00041F4EC85E4FF05C0D194C194D1088DE283
:102E000001C08BE2B70190E0A3D480E32AE0C216B0
:102E1000D1042CF08F5FFAE0CF1AD108F7CFB701B9
:102E200090E096D4B701C601C09692D449C18336CA
:102E300031F0833779F0833509F052C01FC0560155
:102E400032E0A30EB11CF6018081898301E010E01D
:102E5000630111C05601F2E0AF0EB11CF601C08053
:102E6000D18096FE03C0612F70E002C06FEF7FEF4C
:102E7000C60163D48C01F92DFF7713C0560122E0FF
:102E8000A20EB11CF601C080D18096FE03C0612F56
:102E900070E002C06FEF7FEFC6013BD48C01F92DCB
:102EA000F0689F2EF3FD18C0852D90E008171907D4
:102EB00098F4B70180E290E04BD45A94F5CFF60134
:102EC00097FC859197FE81916F01B70190E040D406
:102ED00051105A94015011090115110581F7F0C0E4
:102EE000843611F0893659F5560197FE09C024E061
:102EF000A20EB11CF60160817181828193810AC0AA
:102F0000F2E0AF0EB11CF60160817181072E000C5A
:102F1000880B990BF92DFF769F2E97FF09C090958E
:102F20008095709561957F4F8F4F9F4FF0689F2ED2
:102F30002AE030E0A3015BD4C82EC6183EC0092D9C
:102F4000853721F40F7E2AE030E01DC0097F8F36DF
:102F500091F018F4883559F0BCC0803719F08837E3
:102F600011F0B7C0006104FF09C0046007C094FEFF
:102F700008C0066006C028E030E005C020E130E06F
:102F800002C020E132E0560107FF09C084E0A80E2C
:102F9000B11CF601608171818281938108C0F2E0E9
:102FA000AF0EB11CF6016081718180E090E0A30159
:102FB0001ED4C82EC6180F77902E96FE0BC0092D72
:102FC0000E7FC11650F494FE0AC092FC08C0092D71
:102FD0000E7E05C0DC2C092D03C0DC2C01C0D12ED7
:102FE00004FF0DC0FE01EC0DF11D8081803311F452
:102FF000097E09C002FF06C0D394D39404C0802F79
:10300000867809F0D39403FD10C000FF06C01C2D84
:10301000D51478F4150D1D190CC0D51450F4B70152
:1030200080E290E095D3D394F8CFD51410F45D18D6
:1030300001C0512C04FF0FC0B70180E390E088D39A
:1030400002FF16C001FD03C088E790E002C088E5DA
:1030500090E0B7010CC0802F867851F001FF02C0CC
:103060008BE201C080E207FD8DE2B70190E070D3F2
:10307000C11630F4B70180E390E06AD31150F8CF65
:10308000CA94F301EC0DF11D8081B70190E060D38B
:10309000C110F6CF15C0F4E0F51550F584E0581ACC
:1030A00093FE1EC0011125C02C8523FF27C000E21E
:1030B00011E0392D3071932EF8018491811121C0D6
:1030C000552009F4FCCCB70180E290E041D35A943A
:1030D000F7CFF7018681978123C08FEF9FEF20C044
:1030E000B70180E290E034D35A945110F9CFDACF8F
:1030F000512CB701802F90E02BD3D6CF04E211E002
:10310000D8CF91108052B70190E022D30F5F1F4FAC
:10311000D3CF23E0251510F483E0C1CF512CC4CFC9
:1031200060960FB6F894DEBF0FBECDBFDF91CF9192
:103130001F910F91FF90EF90DF90CF90BF90AF90D5
:103140009F908F907F906F905F904F903F902F90C7
:103150000895A1E21A2EAA1BBB1BFD010DC0AA1FD8
:10316000BB1FEE1FFF1FA217B307E407F50720F0F0
:10317000A21BB30BE40BF50B661F771F881F991F6B
:103180001A9469F760957095809590959B01AC01B4
:10319000BD01CF010895A29FB001B39FC001A39FBD
:1031A000700D811D1124911DB29F700D811D112480
:1031B000911D0895DF93CF931F930F939A9DF02D48
:1031C000219FF00D8B9DF00D8A9DE02DF10D039F49
:1031D000F00D029FE00DF11D4E9DE00DF11D5E9D75
:1031E000F00D4F9DF00D7F936F93BF92AF925F9361
:1031F0004F93D501D0DF8B01AC01D701CCDFEB01C0
:10320000E80FF91FD6011FD02F913F91D601C3DFE0
:10321000C60FD71FE81FF91FAF91BF9114D02F9190
:103220003F91B9DFC60FD71FE81FF91FD601B3DFE3
:10323000E60FF71F9801BE01CF0111240F911F91D6
:10324000CF91DF910895A7DF460F571FC81FD91FE1
:1032500008F431960895689401C0E894F92FF12B91
:103260000AF027C0A0E0B0E0E7E3F9E193C0092E3F
:1032700005941AF479D0112392F4F0E80F26FFEFA9
:10328000E094F09400951095B094C094D094A194DB
:10329000BF0ACF0ADF0AEF0AFF0A0F0B1F0B13D07A
:1032A00007FC62D0CDB7DEB7ECE090C0689401C0F7
:1032B000E8948F929F92CF93DF9305D0DF91CF91C7
:1032C0009F908F90089588249924F401E401B0E43C
:1032D0009F93AA279A158B049C04ED05FE05CF0544
:1032E000D007A10798F4AD2FDC2FCF2FFE2FE92DAB
:1032F000982C892E982F872F762F652F542F432FA8
:10330000322F2227B85031F7BF9127C01B2EBF9113
:10331000BB27220F331F441F551F661F771F881FAF
:10332000991F881C991CEE1FFF1FCC1FDD1FAA1FB1
:10333000BB1F8A149B04EC05FD05CE05DF05A00725
:10334000B10748F08A189B08EC09FD09CE09DF098E
:10335000A00BB10B21601A94E1F62EF49401AF0199
:10336000BE01CD01000C08956095709580959095F3
:1033700030954095509521953F4F4F4F5F4F6F4F80
:103380007F4F8F4F9F4F08952F923F924F925F92A2
:103390006F927F928F929F92AF92BF92CF92DF9265
:1033A000EF92FF920F931F93CF93DF93CDB7DEB7CA
:1033B000CA1BDB0B0FB6F894DEBF0FBECDBF09945E
:1033C0002A88398848885F846E847D848C849B84B5
:1033D000AA84B984C884DF80EE80FD800C811B81C3
:1033E000AA81B981CE0FD11D0FB6F894DEBF0FBEF2
:1033F000CDBFED0108950F93083090F0982F872FDF
:10340000762F652F542F432F322F22270850F4CFC9
:10341000220F331F441F551F661F771F881F991FD8
:103420000A95B2F70F91089597FB10F816940008CB
:103430000F93083098F00850232F342F452F562F24
:10344000672F782F892F902DF4CF05949795879526
:103450007795679557954795379527950A95AAF7D4
:103460000F9108952A0D3B1D4C1D5D1D6E1D7F1D86
:10347000801F911F08950024A7FD00942A0F301D7E
:10348000401D501D601D701D801D901D08952A1542
:103490003B054C055D056E057F0580079107089586
:1034A0000024A7FD00942A1730054005500560054B
:1034B00070058005900508958F929F92AF92BF92FC
:1034C000CF92DF92EF92FF92CF93DF93EC0168816E
:1034D00079818A819B81611571058105910521F4AE
:1034E00064E279ED8BE597E02DE133EF41E050E0C8
:1034F000DCD149015A019B01AC01A7EAB1E4F1D149
:103500006B017C01ACEEB4EFA5019401F6D1DC01B6
:10351000CB018C0D9D1DAE1DBF1DB7FF03C00197D4
:10352000A109B04888839983AA83BB839F77DF91E1
:10353000CF91FF90EF90DF90CF90BF90AF909F9092
:103540008F900895B9CF80E092E0B6CFA0E0B0E0D0
:103550008093000290930102A0930202B0930302B1
:103560000895283008F027E03327DA01990F311D3C
:1035700087FD916000966105710539F432602E5F18
:103580003D9330E32A95E1F708959F3F30F080386E
:103590007105610509F03C5F3C5F3D93913008F097
:1035A0008068911DDF93CF931F930F93FF92EF924B
:1035B000192F987F9695E92F96959695E90FFF27F5
:1035C000EE57FE4F99273327EE24FF24A701E7018A
:1035D00005900894079428F4360FE71EF81E491F3B
:1035E000511D660F771F881F991F0694A1F705903C
:1035F000079428F4E70EF81E491F561FC11D770FC8
:10360000881F991F661F0694A1F70590079428F458
:10361000F80E491F561FC71FD11D880F991F661F1F
:10362000771F0694A1F70590079420F4490F561FC1
:10363000C71FD81F990F661F771F881F0694A9F709
:1036400084911095177041F0D695C7955795479579
:10365000F794E7941A95C1F7E8E2F1E068941590C1
:10366000159135916591959105907FE27395E118DB
:10367000F10A430B560BC90BD009C0F7E10CF11E40
:10368000431F561FC91FD01D7EF4703311F48A9555
:10369000E6CFE894015030F0080F0AF40027021733
:1036A00008F4202F2395022F7A3328F079E37D93B5
:1036B0002A95E9F710C07D932A9589F60694979587
:1036C0006795379517951794E118F10A430B560B38
:1036D000C90BD00998F023957E9173957A3308F041
:1036E00070E37C932013B8F77E9170617D9330F086
:1036F000839571E37D9370E32A95E1F71124EF90B0
:10370000FF900F911F91CF91DF91992787FD9095A1
:103710000895FC010590615070400110D8F7809524
:1037200090958E0F9F1F0895FB01DC0102C0019050
:103730000D9241505040D8F70895FC0161507040FF
:1037400001900110D8F7809590958E0F9F1F0895D6
:103750000F931F93CF93DF93FB01238121FD03C0C0
:103760008FEF9FEF2CC022FF16C046815781248126
:1037700035814217530744F4A081B1819D012F5F29
:103780003F4F318320838C93268137812F5F3F4FBA
:103790003783268314C08B01EC01FB010084F18583
:1037A000E02D0995892BE1F6D80116968D919C9113
:1037B0001797019617969C938E931697CE01DF91DB
:1037C000CF911F910F910895CF93DF93CDB7DEB7BF
:1037D000AE014B5F5F4FFA0161917191AF01809132
:1037E000600B9091610B2CD9DF91CF910895FA0174
:1037F000AA27283051F1203181F1E8946F936E7F30
:103800006E5F7F4F8F4F9F4FAF4FB1E03ED0B4E020
:103810003CD0670F781F891F9A1FA11D680F791F61
:103820008A1F911DA11D6A0F711D811D911DA11D72
:1038300020D009F468943F912AE0269F1124301982
:10384000305D3193DEF6CF010895462F4770405D1D
:103850004193B3E00FD0C9F7F6CF462F4F70405DCC
:103860004A3318F0495D31FD4052419302D0A9F727
:10387000EACFB4E0A6959795879577956795BA9521
:10388000C9F700976105710508959B01AC010A2EE7
:1038900006945795479537952795BA95C9F7620FBE
:1038A000731F841F951FA01D0895052E97FB16F406
:1038B00000940FD057FD05D04CDC07FC02D046F435
:1038C00008C050954095309521953F4F4F4F5F4F21
:1038D000089590958095709561957F4F8F4F9F4F7C
:1038E000089559DCA59F900DB49F900DA49F800D65
:1038F000911D11240895B7FFF4CFF3DF821B930BC2
:063900000895F894FFCFCA
:103906000100000000000003000000001615DB1493
:1039160000000A0D5B544553545A205A555D3A200F
:0E39260058666972737420697320257A7500E3
:00000001FF
